:020000041000EA
:1000000000B5324B212058609868022188439860DF
:10001000D860186158612E4B002199600221596106
:100020000121F02299502B49196001219960352056
:1000300000F044F80222904214D00621196600F024
:1000400034F8196E01211966002018661A6600F04E
:100050002CF8196E196E196E052000F02FF8012189
:100060000842F9D1002199601B49196000215960AB
:100070001A491B48016001219960EB211966A021F2
:10008000196600F012F800219960164914480160C1
:100090000121996001BC002800D000471248134993
:1000A000086003C880F30888084703B5996A0420EC
:1000B0000142FBD001200142F8D103BD02B5186610
:1000C0001866FFF7F2FF186E186E02BD00000240BE
:1000D000000000180000070000035F00212200005C
:1000E000F4000018222000A00001001008ED00E03C
:1000F00000000000000000000000000074B24E7A12
:1001000000200420F7010010C3010010C5010010F9
:10011000C1010010C1010010C1010010C101001097
:10012000C1010010C1010010C1010010C701001081
:10013000C1010010C1010010C9010010CB01001065
:10014000CD010010CD010010CD010010CD01001037
:10015000CD010010CD010010CD010010CD01001027
:10016000CD010010CD010010CD010010CD01001017
:10017000CD010010CD010010CD010010CD01001007
:10018000CD010010CD010010CD010010CD010010F7
:10019000CD010010CD010010CD010010CD010010E7
:1001A000CD010010CD010010CD010010CD010010D7
:1001B000CD010010CD010010CD010010CD010010C7
:1001C00000BE00BE00BE00BE00BE00BEEFF3058054
:1001D000103800BEF2EB8871908D0510B08D0510BF
:1001E0003402001090A31AE700201F49086006C8D7
:1001F00081F3088810471D48006800282FD10DA4FE
:100200000ECC002902D000F012F8F9E71849194A7B
:10021000002000E001C19142FCD1174988471749ED
:1002200088471749884700BEFDE701C901C29A42C5
:10023000FBD37047B08D0510C00000204010002097
:10024000309D05100000042000000420309D0510A2
:10025000001004200010042000000000704709482E
:100260000FF0C8F90047000008ED00E0000000D0E2
:100270006010002050DE0220E5600110A106001091
:10028000D96101105756000006005250ABB36053BD
:10029000208B051006005250861C0302308B05107F
:1002A000060052505422A29D348B05100500525076
:1002B000DE65F468309D0510F8B5C0460448054B6E
:1002C00010B5834203D0044B002B00D0984710BDDB
:1002D00040100020401000200000000006480749A0
:1002E000091A8B10C90FC91810B5491003D0044B57
:1002F000002B00D0984710BD401000204010002077
:100300000000000010B5074C2378002B09D1FFF73F
:10031000D5FF054B002B02D0044800E000BF0123AD
:10032000237010BDE81200200000000088E90110D1
:10033000054B10B5002B03D00449054800E000BF71
:10034000FFF7CCFF10BDC04600000000EC120020FB
:1003500088E90110F0B5C6460B4BD0279846012618
:1003600000B50A4D3F060121286849427C681BF010
:1003700033F84346240C34401C7000220023002133
:1003800028681AF099FDEEE739DE0220681900208E
:10039000F0B50E4BD0268027C64698463606FF019C
:1003A0000B4C00B577610121206849421BF014F81D
:1003B00043461D7800220023002120681AF07CFDAE
:1003C000002D01D0B761EEE77761ECE739DE02205E
:1003D00068190020F8B5CE464746042180B50020B4
:1003E0000FF0A8FAFF22214B12015A60204A214D3A
:1003F0001A611A68012393431F4A204F1360012397
:1004000099461F4B1F4E98460121286849421AF011
:10041000E3FF3C78002300220021286834701AF0A2
:100420004BFD002CF0D14B46002B0FD043461A68F1
:10043000F523E1205B0053401B04134A1B0C13609F
:1004400080001DF0E3F800239946DDE74346E120F4
:100450001A680E4B800053401B040B4A1B0C1360A0
:100460001DF0D4F801239946CEE7C04600000540B0
:100470004C260000681900200010054039DE0220DB
:100480000C00054041DE02200C100540D2030000A4
:10049000F0B5DE4657464E464546E0B561488DB05C
:1004A00017F018FF10F02EFE041E00D098E05E48F2
:1004B00017F010FF0225802200235C49D2005C481F
:1004C000019400951DF018F9802200235949D200AB
:1004D0005948019400951DF00FF9802200235749D7
:1004E000D2005748019400951DF006F910F0A8FDC0
:1004F000544817F0EFFE544B544A5549554810F0F4
:10050000ADFD002800D087E0534817F0E3FE00223D
:10051000012102200EF04CF810220021060004A850
:1005200017F06EFD84236A469B0013824B4800F04F
:1005300047FA6B465882002E5CDB1022300004A97B
:100540000DF0BEFE00285BDB032130000DF0A4FFA0
:1005500000285BDB424B1027186804300CF00EF9C2
:100560006B460400588A00F02BFA210002003D4837
:1005700017F052FF3C4B3D4D99463D4B98463D4B45
:100580009B463D4B9A464846039717F0A3FE300022
:1005900003AA08A90DF07CFD0400404617F09AFE5E
:1005A000002CF0DB0922290020000DF0B7FF00230A
:1005B00029002B54584617F02FFF2900504617F0FA
:1005C0002BFF2E4B1B78002B06D02D4817F082FEF8
:1005D00020000DF0C7FED6E72A4817F07BFEF7E7AC
:1005E000294817F077FE0DB0F0BCBB46B246A946CD
:1005F000A046F0BD254B2648196817F00DFFF2E71D
:10060000224B2448196817F007FFECE71F4B2248DC
:10061000196817F001FFE6E7204817F05BFE01209C
:1006200015F0DAFD88E90110B0E90110C0E9011008
:10063000D5030010CCE9011091030010D8E9011096
:1006400055030010E4E9011030750000040040007B
:10065000FCE9011008EA011024EA0110901F0000D3
:10066000B8C80020A0EA0110C4EA011048DB00204D
:10067000D8EA0110ECEA011008EB011041DE02207B
:100680001CEB01103CEB011098E901100413002051
:1006900030EA011054EA011078EA011010EA011062
:1006A00010B582B017F0C4FE19480FF0EFFF1948DB
:1006B00017F010FE0E200FF0DDF9D0248023240661
:1006C000DB01636200200FF0D5F901231020636283
:1006D0000FF0D0F980235B02A362002201211020D9
:1006E0000FF040F900238022019302330A49D2001F
:1006F00000930A4800231CF0FFFF01201AF0C2FCFF
:10070000074B18601CF0BAFC002002B010BDC046B8
:100710008813000058EB011060EB011091040010E9
:10072000681900200022024B00201A607047C04662
:10073000BC2C002010B50023002200211AF0BCFBC5
:1007400010BDC046154B10B51860154B1A78002A1D
:100750001CD101321A700021023201201AF068FB0C
:1007600003220400002101201AF062FB0D4B21003E
:1007700018600D480EF022F80121200049421AF0BD
:100780002BFE20001AF0E8FE012010BD054B0022D0
:100790000021186800231AF08FFBF5E7BC2C00201D
:1007A0003FDE022000DD00203507001010B5036891
:1007B00000221B690149984710BDC046250700105B
:1007C00070B5094C2368002B08D1084D0121286819
:1007D00049421AF001FE2368002BF7D02068036815
:1007E0005B68984770BDC046BC2C002000DD00202F
:1007F000034B10B5186803689B68984710BDC04646
:10080000BC2C0020020083680832002B04D107E0D2
:100810001A001B68002B03D09942F9D1002003E095
:100820000023012011600B607047C0468368002BD5
:1008300008D0994202D107E0994207D01A001B68FC
:10084000002BF9D100207047020008320B6801200C
:100850001360F8E74368021D002B04D107E01A007B
:100860001B68002B03D09942F9D1002003E000233C
:10087000012011600B6070474368002B08D099423B
:1008800002D107E0994206D01A001B68002BF9D16B
:1008900000207047021D0B6801201360F9E7C04675
:1008A000F8B54746CE468368804680B5002B29D0F0
:1008B0000823434499460FF0D7FF43469E6804003F
:1008C0000D00002E58D000234F469C46B268F368B6
:1008D00020002900801A9941002902DB14001D0024
:1008E000BC4637003668002EF0D16346002B43D05B
:1008F000196840460A681A604B68984743469B68E7
:10090000002BD8D143465C68002C31D00025237AD7
:10091000002B29D02100636825724046984724683F
:10092000002CF4D1174B1868596843469E68002E76
:1009300004D112E020002900002E0ED03300020066
:100940009C68DD680B00121BAB413668002BF1DCA4
:10095000F2D1002AEED1002EF0D143461861596140
:10096000C0BCB946B046F8BD2468002CCFD1D9E749
:10097000044B18685968F0E743465C68002CC5D101
:10098000D0E7C046C80E0210024B18688007C00F9F
:100990007047C04600C0064010B501F07DFC0DF068
:1009A000E1FF00F01FFB00F02DFD00F0D7FD06F089
:1009B0009DF901F001FD00F057F906F017F910BD9F
:1009C00040BA80B27047C04600BA7047F8B5474693
:1009D000CE4680B50701040038180001103081466A
:1009E000404D414E2B688846B144002B02D02A7AF4
:1009F000A24258D0EB68002B02D02A7DA2424BD0F5
:100A0000AB69002B03D02022AA5CA2423DD06B6AC6
:100A1000002B03D02C22AA5CA2422FD03B191B0131
:100A2000F318DB7B002C04D0B27A022A41D0012CCF
:100A300006D08D225200B25C022A43D0022C05D08F
:100A40002A4AB25C022A43D0032C03D0284AB25C63
:100A5000022A42D0032B0DD8264D9B00585906F090
:100A600033FC00223C1924013619F37B9B005A51B8
:100A70000423F373C0BCB946B046F8BD41464846AE
:100A8000AA6A984700236B62C8E741464846EA696C
:100A900098470023AB61BAE7414648462A69984720
:100AA0000023EB60ACE748466A68984700232B6058
:100AB000A0E7F27B9A42BAD104233C1924013619EB
:100AC000F373D7E72022FF32B25C9A42B6D1F3E744
:100AD000094AB25C9A42B7D1EEE7084AB25C9A4240
:100AE000B8D1E9E700240020382400202A020000C1
:100AF0003A030000F02300202F0200003F03000013
:100B0000F0B5DE464E46574645468346E0B50301FE
:100B100087B04F4A01935B441B01D618F27A012A31
:100B200000D992E04B4992008C58002C00D17FE014
:100B300010331D00464B9C46654428001DF040FEC6
:100B4000A022123081B29200362000F017FF8146B9
:100B5000002866D003AC0C220021200017F050FAC8
:100B60003089FFF72DFF01232080A3700C22FF3373
:100B700021004846A38001F0F5F9374B0C269A4630
:100B80004F46013D6B1C98466B78002445462E2B42
:100B900006D156E06B7801340135E4B22E2B01D03A
:100BA000002BF7D14346EB1A9BB299462300F3186A
:100BB000534542DC22003100380001F087FA731CF3
:100BC0004A469BB234194146380001F007FAA3B2F5
:100BD0002A785E1CB6B2002AD4D11C00310038003D
:100BE00001F074FA1D4B02340422029302A9A3B24D
:100BF000380001F0F3F9164A019B944615495B440D
:100C00001B0163448C46DA7ADB7B15499B0092001A
:100C1000585862443523390006F0E0FA380001F0F4
:100C200045F807B0F0BCBB46B246A946A046F0BDA9
:100C30000021FFF7CBFEB472F3E7380001F036F87D
:100C4000EFE7002200239146B1E7064815F0C8FA05
:100C50003824002030240020FEFF000000010001A5
:100C6000F02300206CEB01107047C04682B00128D1
:100C700001D902B070478000002903D00A68044BF4
:100C8000C250F6E7034A024B12680192C250F0E7E5
:100C9000302400206C060210F0B546464F46D6467A
:100CA000464BC0B5464E8D273400002598467F0040
:100CB000A37A022B35D02CD8002B1FD0414B99465C
:100CC000414B9A460EF0B6FAB37A80B2022B40D06E
:100CD000F35D022B43D04B46F35C022B48D05346C6
:100CE000F35C022B4DD002230122A372002320814A
:100CF000E372280022736373FFF702FF013511349A
:100D0000EDB2FF34042DD3D1E0BCBA46B146A846BB
:100D1000F0BD032B4ED12368002B13D10023A37207
:100D2000ECE7237B013BDBB22373002BE6D1637B33
:100D30000133DBB26373042B29D023732800FFF740
:100D4000DFFEDBE7013B2360002BD7D10023A3723A
:100D5000D4E733898342B5D0F35D022BBBD117337F
:100D6000FF33F35A8342ADD04B46F35C022BB6D12E
:100D70008A239B00F35A8342A4D05346F35C022B90
:100D8000B1D1CE239B00F35A8342ACD19AE7E37AE8
:100D9000002B08D142465268002A04D00122637316
:100DA000E2722273CAE700212800FFF70FFE00233A
:100DB000A372A3E7054815F013FAC04630240020BB
:100DC000382400202A0200003A030000A0EB0110A2
:100DD000F0B583B06B469C1D0023238001331E00B9
:100DE0000640184205D0002903DD037801396370FD
:100DF0000130032213000340104205D000230129D3
:100E000038DD03880239023007294BDD0839072213
:100E10000F009743020005000832BF182A689A188D
:100E20009A429B415B42D2186B680835D3189342B3
:100E3000924152429B18AF42F0D1CA08551CD200D1
:100E4000ED00891A1A044019120C1B0C9B18012979
:100E500010DD02889B188A1E012A05DD45885B1972
:100E6000052901DD81885B1851084D1C6D00490082
:100E70004019511A012901D1027822702288D21812
:100E8000130C1204120C9B18180C1B041B0CC0181A
:100E9000002E04D0030600041B0C000E184380B281
:100EA00003B0F0BD1A00D0E7F0B54F46D64646462F
:100EB000C0B591461A68089B8A46196804000B045D
:100EC0001B0C090C5B181104090C5918130C5B1846
:100ED000180C1B041B0CC318180C1B041F0CC7197F
:100EE000002C21D0FF2300260125984661896068E7
:100EF000FFF76EFFC019030C0004070CDF196389AC
:100F00001D4207D042463B06380A1B0C10400343E3
:100F10001F006E402468002CE8D1002E04D03B0650
:100F20003F041B0C3F0E1F43534698B2FFF748FD8A
:100F300004004846FFF744FD2018C019030C0004C4
:100F4000000C1818030C0004000C1818C04380B2E1
:100F5000E0BCBA46B146A846F0BDC04610B582B066
:100F6000049C0094FFF7A0FF02B010BD10B5FFF77E
:100F70002FFFC04380B210BDF0B5C646040000B5D7
:100F800000282AD0FF2300260027012598466189E2
:100F90006068FFF71DFFC019030C0004070CDF1980
:100FA00063891D4207D042463B06380A1B0C10409D
:100FB00003431F006E402468002CE8D1002E09D0A6
:100FC0003B0638041B0C000E1843C04380B280BCA3
:100FD000B846F0BDF84380B2F9E70148F7E7C046EC
:100FE000FFFF000003220E4B10B5033393430D4A5D
:100FF00000211360FA220C4812011971991801603E
:1010000001201A600871094909489950094A13607A
:101010000DF0B8FC002800D110BD074815F0E0F82D
:1010200088CB002080CB002084CB0020A00FA00F15
:10103000502D0020B02C0020C0EB0110F8B5DE468A
:1010400057464E464546E0B500286DD0830700D090
:1010500083E00400424D083C2B68A34200D970E0B5
:10106000404F0C303B68834200D26AE03E4E300075
:101070000DF098FC2379002B00D16BE0FA23208837
:101080001B0198420ED8628894469A420AD82B686F
:10109000E21A92B2904662469D18E04505D02A8831
:1010A000424502D0314815F09BF839681A18894634
:1010B0008A4202D051884145F4D1002121712C4946
:1010C0008B460968A14202D959460C6021009C4216
:1010D0003AD34C453BD2944213D01779002F10D10C
:1010E0004A450ED08A4228D0FA2710883F01208036
:1010F0001288BA4205D045469A18558062889446AF
:101100009D18AC420DD02A79002A0AD18C4211D008
:10111000FA212880228809018A4202D09B1862465F
:101120005A8030000DF05AFCF0BCBB46B246A946CE
:10113000A046F8BD5A461560EAE759460C60210002
:10114000D2E70C4815F04CF80B4815F049F80B485D
:1011500015F046F80A4815F043F80A4815F040F82B
:1011600080CB002084CB0020502D002044EC0110C7
:10117000B02C002000EC011078EC011090EC011074
:101180001CEC0110DCEB0110F0B54646D6464F468C
:10119000424BCC1CC0B51C4006000B2C4ED9FA2388
:1011A0001B019C424DD8A1424BD83D4B1F689A462B
:1011B000B74200D969E03B4B1B68B34265D90823AD
:1011C0005B429846B04443461D88DF1BBFB2083DD2
:1011D000ED1BADB2A5425BD32AD0334B1800994624
:1011E0000DF0E0FB43461A8853461B6898180179B6
:1011F000002928D1FA2109018A424CD03A002B4912
:101200000832A4180A680588A4B282423AD01A1992
:10121000002111714146158057800C80FA211288F7
:1012200009018A4201D09B185C8048460DF0D6FB2C
:101230003000E0BCBA46B146A846F0BD0C24A1423D
:10124000B3D90026F4E72100143189B28D42ECD3E2
:10125000390008316418FA21A4B209018A421AD06F
:101260001248191905688D4200D901600A800020D2
:10127000424608714F8014800A88FA2109018A4287
:10128000D1D1D2E71A190A60C2E7094814F0A8FFC1
:10129000084814F0A5FF084814F0A2FFFCFF000066
:1012A00080CB002084CB0020502D0020B02C0020CB
:1012B000ACEC0110C4EC0110E4EC0110F8B5DE4612
:1012C00057464E464546E0B500283ED0454BC51C26
:1012D0001D400B2D36D9FA231B019D4235D8A8425B
:1012E00033D8414BFA2718009B460DF05BFB3F4B70
:1012F0003F0199461B687A1B98463D4B94461E68F1
:1013000043469B1B99B21B041B0C9A4215D9082219
:101310005242924609E057462088FB1A1B18AB42FE
:101320001AD203000100634507D2F4182279002A7B
:10133000F1D021880B006345F7D358460DF04EFBE2
:10134000002003E00C25A842CBD90020F0BCBB460E
:10135000B246A946A046F8BD2F001437BFB2BB4223
:1013600025D3FA270835ADB24B193F019BB2BA46D7
:10137000BB4231D0F7183A7101223880798023803E
:1013800022713A88524501D0B2185380194FA045B6
:1013900012D058460DF022FB3B682D19AB421ED3EC
:1013A00020000830A307D1D0134814F019FF0123FF
:1013B00008352371ADB2E9E72300396804E01B88E2
:1013C000F3181A79002A04D09942F8D14B461960D3
:1013D000DFE74A461360DCE7084814F001FF0848DD
:1013E00014F0FEFEFCFF0000502D0020B02C002069
:1013F00080CB002084CB002028ED0110E4EC01100C
:10140000F8EC011034230022F0B54746CE46904652
:10141000994603320425944680B5124F124B134C63
:10142000B94441463A682160614603338B43002D3D
:101430000BD016880021002200E003000132196061
:10144000981919002360AA42F7DB0437B94504D084
:101450003A68946853685588E3E7C0BCB946B0461B
:10146000F0BDC0464CEE0110FCBF002094C8002027
:1014700010B50C2810D80B4B8000C4580DF078FA2A
:10148000A3681C68002C03D022681A60A30705D14A
:101490000DF074FA200010BD0024FBE7024814F0A0
:1014A0009FFEC0464CEE01106CED011070B50C00B3
:1014B0000C280ED800290CD0084B8000C5588B078B
:1014C00008D10DF055FAAB681A6822601C600DF067
:1014D00055FA70BD024814F083FEC0464CEE011070
:1014E00090ED01100C2040427047C04670B50500D9
:1014F0000C00160082B000292AD043680A689A427C
:1015000001D102B070BD3360300001A9019202F038
:10151000B3F9300001A905F011FF01A9300000F076
:101520009BFE392322686A60E95C343B0B40052B43
:1015300005D0EB69002BE4D028009847E1E7002AAA
:10154000F7D00B07F5D52800291D09F08BFFF0E730
:10155000014814F045FEC04680EE01107047C046B9
:10156000F0B5C64600B504000E001700984682B0DC
:1015700000286AD0099B002B67D0002900D174E0B5
:10158000002F00D16FE04346002B69D03F4B002570
:1015900063610022392320006560A560E56025862F
:1015A0000021E2542830042216F02AFD089BE56150
:1015B00063623C232562364D2A78E2540A9B2361FC
:1015C0003368002B3AD13100200001AAFFF78EFFCB
:1015D0000122A168E0683B68994200D0A3604346BD
:1015E0001B68984200D0E360002A33D02000099B9A
:1015F0009847002829D1274B3C2698461F683C2352
:10160000E05C00239C46FF2802D163460020A355DE
:10161000002F2CD0BC4236D03B00FF2207E01B68D5
:10162000002B24D09C422ED0013A002A0AD0995D8A
:101630008142F4D10130C0B2A055E4E7002000217E
:101640000022C8E7144814F0CBFD002002B080BC93
:10165000B846F0BD3100200001AAFFF747FFC5E7FB
:101660000E4B984692E70D4F8DE70C4E88E7FE280B
:1016700007D00130C0B243462870276020001C60AC
:10168000E4E70020F7E7064814F0AAFDE51400108F
:1016900046DE0220B8C80020A4EE01106C0602103D
:1016A00090EE0110F0B504000D0016001F0083B08D
:1016B00000294ED0002E4AD0002F46D02B680022A1
:1016C000002B0CD03368A1688B4200D0A3603B682C
:1016D000E1688B4230D1002A31D003B0F0BD61689F
:1016E00001220029EED06846009101A9019302F081
:1016F000C3F8684601A905F021FE01A9684600F07B
:10170000ABFD39232A686260E15C343B0B40052B5A
:1017100007D1002A05D00B0703D52000211D09F0B1
:10172000A1FEE369002B01D0200098473368A1682F
:1017300001228B42CBD0C9E7E360002ACDD16A46B3
:1017400029002000FFF7D2FEC7E7034FB6E7024E9D
:10175000B2E7014DAEE7C0466C06021070B5041E3C
:1017600016D04368002B17D139220121A35C1942FE
:1017700024D11D4B1A68A2422ED01C4A1368A342E2
:1017800004D126E01A68A24203D01300002BF9D13D
:1017900070BD22681A60FBE7051D0021280002F0D9
:1017A0006BF80021280005F0C9FD0021280000F099
:1017B00053FD39220121A35C1942DAD01800884375
:1017C000A0541B070BD4E369002BD2D0200098470C
:1017D000CFE723681360DBE700221A60CDE7200023
:1017E00009F09EFAEFE7C046B4C80020B8C8002050
:1017F000014B18607047C046B4C8002070B5041E85
:1018000015D03925435DDA0711D401221343DBB229
:101810004355C269002A01D09047635D05221A40F2
:10182000052A04D16268002A01D01B0700D470BDCC
:101830002000211D09F016FEF9E7C04670B5041E10
:1018400003D03925435D5A0700D570BD04221343E8
:10185000435506F029FD0523625D1340052B05D095
:10186000236A002BF1D020009847EEE76368002B35
:10187000F6D01307F4D52000211D09F0F3FDEFE7A2
:1018800010B500280AD039220421835C194205D002
:101890008B438354036A002B00D0984710BDC04689
:1018A000021E0ED0084B1868002809D03C2102E027
:1018B0000068002804D0435C0133DBB29342F7D1C7
:1018C00070470020FCE7C046B8C8002010B50DF0F6
:1018D0004FF80022084B1A700DF050F8074B1868AB
:1018E000002803D107E0C068002804D0436F002B14
:1018F000F9D002F00FF810BD48DE0220D4DC002041
:10190000F8B505000026002826D00F270BE0012B94
:1019100024D0002B2AD12800FFF790FB0136F6B225
:10192000002C19D025000DF023F8AC7B002C1AD028
:10193000013CE4B2AC730DF021F8002C0CD12B7BF0
:101940002C683B40022BE2D129000C200136FFF726
:10195000ADFDF6B2002CE5D13000F8BD29000B201A
:10196000FFF7A4FDDAE7034814F03AFC024814F04C
:1019700037FCC046D4EE0110ECEE0110F0B5C123E7
:101980004F464646D6468046C0B50D00170084B285
:101990005B009A4244D009D81400433BFF3B9C4370
:1019A000012C00D16EE0454814F01AFCA0239B00E6
:1019B0009A42F8D1E31C0324CA1CA343A2439B18F8
:1019C0009BB21800103080B2934222D3824220D8BA
:1019D000FFF774FC061E1DD0002303604346C718A2
:1019E0001337374B2904A7430D4347608560C36015
:1019F00010E00CF0BDFF0123324D2C782B70E4B2C7
:101A00000CF0BCFF002C4CD0002E02D03000FFF7B1
:101A100077FF00263000E0BCBA46B146A846F0BDCC
:101A200000239846284B00269A4600230327994610
:101A300007E043466D1AADB21860002DEAD080462B
:101A400000240C20FFF714FD0028D2D05246E31CDE
:101A5000BB43D31A1A1C9BB2AB4200D92A1C4B467B
:101A6000041903601334194BBC4391B244600581DF
:101A70004281C360002EDCD16D1AADB20600002D8C
:101A8000DDD1C7E70B20FFF7F3FC061EC2D0002311
:101A900029040D4303604360856007734373C48169
:101AA000B8E700210A480CF055FE0028ACD00CF035
:101AB0005FFF2C700CF062FFA6E7C04600EF01103C
:101AC0008000010048DE0220EC05000082000100D9
:101AD000CD18001070B5041E34D002898A421CD97A
:101AE0000D008A1A07E023896D1A9B182381246848
:101AF000ADB2002C20D06189A942F4D3237B1B070F
:101B000001D1A9420AD1290420682943A1600028F3
:101B100001D0FFF7F5FE0023236070BD636820004D
:101B2000191B691889B2FFF72FFB002807D08442E0
:101B3000E9D0064814F054FB054814F051FB054861
:101B400014F04EFB044814F04BFBC04668EF011044
:101B500034EF01104CEF01101CEF0110030070B5C1
:101B6000002820D08022520291421AD2002916D099
:101B700002898CB2A21892B2944212D8057B01203D
:101B80007F2D0DD95D68691A1D001035A94207D354
:101B900059605989002064185C811A8100E0002096
:101BA00070BD0120FCE7014814F01AFB2807021061
:101BB00010B5002818D080235B02994212D2002968
:101BC0000ED043898AB29A420CD844689B1AA44624
:101BD0004381038961449A1A41600281002010BD4B
:101BE0000020FCE70120FAE7014814F0F9FAC046AA
:101BF0002807021010B5002915DB00282FD0002976
:101C000023D003898AB2D3189BB29A4225D8047B89
:101C10007F2C1CD84468611A4160418903815218A5
:101C20004281002010BD002819D0494243898AB260
:101C30009A4212D844689B1AA4464381038961449E
:101C40009A1A416002810020ECE70020EAE744682C
:101C5000611A04001034A142DED20120E2E70148FB
:101C600014F0BEFA2807021070B50C1E19D0002619
:101C700000280BD118E0641A0568A4B20660FFF7CB
:101C80003FFE002C0ED0002D0ED028004189A1422D
:101C9000F1D9091B4368418101891B190C1B436061
:101CA00004810500280070BD0025FBE710B5002861
:101CB00002D0FFF725FE10BD014814F091FAC0468E
:101CC0002807021003000020002B04D01B680130FD
:101CD00080B2002BFAD1704710B5041E09D00CF069
:101CE00047FEA37B0133A3730CF048FEA37B002BBC
:101CF00000D010BD014814F073FAC04684EF011003
:101D000010B5002814D0002912D00368002B07D08A
:101D100002890C891219028118001B68002BF7D167
:101D200002894389934204D10A8901609B18038187
:101D300010BD014814F054FA98EF011010B50C00D2
:101D400000281FD000291CD00368002B07D002896F
:101D500021895218028118001B68002BF7D10289D3
:101D60004389934214D1228904609B1803810CF0AB
:101D7000FFFDA37B0133A3730CF000FEA37B002BBC
:101D800003D010BD0029FCD0F1E7034814F028FA75
:101D9000024814F025FAC04684EF011098EF0110B4
:101DA000F0B54F46D64646468146C0B5884692466F
:101DB0001F00002900D184E00B89934200D280E00B
:101DC000002800D17DE053460289FB189A4200DAD0
:101DD00077E0002644890CE043465A891B899A42E1
:101DE0003DD04B465C891B899C424DD05346002B0D
:101DF00057D043465B89E41B9B1B9C4200D91C00C7
:101E00005546A24500D925004B465B682A00D819E3
:101E100043465B687F19991916F0F8F8534676190E
:101E20005D1BABB29A464B465C89BC424CD34346E1
:101E30005B89B3424BD305D143461B6800269846C5
:101E4000002B17D0BC42C7D14B461B689946002BCC
:101E50001FD043465A891B8900279A42C1D1434665
:101E60001B68002BBDD006204042E0BCBA46B146FC
:101E7000A846F0BD5346002B23D1BC4219D04B4697
:101E80001B899C420DD100264B461B68002BADD010
:101E9000E9E75346002B14D143461A895B899A42DD
:101EA00001D00020E1E743461B68002BDBD1002076
:101EB000DBE74B461B689946002BF2D000275C8974
:101EC000DDE710204042D0E7024814F089F90248CB
:101ED00014F086F9C8EF0110E0EF011010B50029E9
:101EE00004D000230A89FFF75BFF10BD1020404299
:101EF000FBE7C046F0B5C646050088461600190047
:101F0000002700B5002828D04346002B25D0002A02
:101F100005D122E02D68091B89B2002D1DD06C89E6
:101F2000002901D0A142F5D2641AA4B2321CA64203
:101F300000D9221C4346D8196B6894B29C46361BC4
:101F400022006144E719B6B216F060F8BFB22D68FE
:101F5000002E02D00021002DE1D1380080BCB8460F
:101F6000F0BDC046F8B5CE464746050088469146C6
:101F700080B5002824D0002922D0038993421CD3A5
:101F800016000027002A02D112E0002D1BD06C8918
:101F9000B44200D9340043466868D919220016F0CB
:101FA00035F8361B2D683F19002EEED1B9450DD1FD
:101FB0000020C0BCB946B046F8BD01204042F8E759
:101FC00010204042F5E7034814F00AF9024814F0E3
:101FD00007F9C046FCEF011014F00110F0B5D64629
:101FE0004F46464604008A46C0B5002805D13AE06F
:101FF00024685B1B9BB2002C35D065899D42F7D9C4
:1020000021899F18B9422EDBE91A8A4232DD8AB251
:10201000904662685146D0187D1B424615F0F6FF87
:10202000ABB29946002B1CD02568002D29D02B89F6
:102030004B4518D34F46002601E0002D24D06C8973
:10204000BC4200D93C004346F11868682200514464
:1020500015F0DCFF3F1B2D683619002FEDD1B1457F
:1020600015D1002001E001204042E0BCBA46B14653
:10207000A846F0BD60685146C01815F0C7FF0020A3
:10208000F3E710204042F0E7024814F0A9F80248B4
:1020900014F0A6F8FCEF011014F001100B0070B55D
:1020A000150011891A00FFF769FC041E06D00023F1
:1020B00029002A89FFF774FE002801D1200070BD95
:1020C000014814F08DF8C0462CF0011005E043895A
:1020D0008B4205D8C91A006889B20028F7D1704729
:1020E00043685A54FBE7C046F0B5DE4645465746BE
:1020F0004E468146E0B5344F83B0396878690AF0BE
:102100001FFB4B465A68314B80461C689B4600209B
:10211000557A002C3AD00026844604E0E368260075
:10212000002B32D01C00237CAB42F7D1217A00294E
:1021300006D03C237868C35C0133DBB29942EDD111
:102140004346002B29D02368002BE7D10121637C73
:10215000194203D0636839698B42DFD163699A46BB
:10216000002BDBD0019221004A46194BA069D047D1
:10217000002819D14B465A68019B9A4221D102236B
:102180009C46E3682600002BCCD1604603B0F0BC2F
:10219000BB46B246A946A046F0BD2368002BD5D069
:1021A00079698B42BAD1D1E7002E08D0E3680120CB
:1021B000F3605B461B68E3605B461C60E6E701205A
:1021C000E4E7044814F00CF8942C002044DB0020D1
:1021D000A42C002040F00110002805D0002903D0D5
:1021E0000B6803600020704706204042FBE7C046B2
:1021F000416182617047C0460B4A0100136810B507
:1022000083420DD0002B07D01A00DB68002B03D0CF
:102210008B42F9D1CB68D3600020FFF747F910BD9E
:10222000C3681360F8E7C04644DB002070B50020A7
:102230000D00FFF71DF9041E0AD01C22002115F025
:10224000DFFEFF23E372034B25741A681C60E26013
:10225000200070BD44DB002010B5002811D00268BA
:10226000002A0ED000290CD00B68002B09D0094B96
:102270001B68002B05D01C68944203D0DB68002B40
:10228000F9D110BD0A681A60DB68002BF9D002682A
:10229000F1E7C04644DB00207047C04610B5041E7D
:1022A00023D0037D042B05D0072B0FD00020032B58
:1022B00000D010BD200003F061FD00280AD10523E5
:1022C0002375200004F086F80020F2E703F056FDA5
:1022D000002807D0431CECD10822638B0020134355
:1022E0006383E6E709232375EBE7014813F078FFE2
:1022F0008CF0011070B50600806F002803D0FFF746
:10230000D5FC0023B367746F002C18D06068256873
:1023100000280CD0FFF7CAFC21000420FFF7C6F804
:10232000002D0AD02C00606825680028F2D1210019
:102330000420FFF7BBF8002DF4D1002373670123BD
:10234000F46E5B423386002C16D060682568002846
:102350000CD0FFF7ABFC21000420FFF7A7F8002DFD
:102360000AD02C00606825680028F2D121000420E2
:10237000FFF79CF8002DF4D1346F002C16D0606864
:10238000256800280CD0FFF791FC21000420FFF7FE
:102390008DF8002D0AD02C00606825680028F2D145
:1023A00021000420FFF782F8002DF4D100236822D9
:1023B000F3663367B35270BD10B50CF03BFF044BAE
:1023C00080049C46800C034B6044188010BDC046BE
:1023D00000C0FFFF0C0F002010B5037D0100012B92
:1023E00003D00220FFF762F810BD014813F0F8FE99
:1023F00098F00110F8B5CE46474680B5002963D065
:10240000002866D0037D002B60D1002A2BD0324EED
:102410003700103733681B68002B03D113E0DB68EB
:10242000002B10D0DC8A9442F9D11C68002C04D017
:102430000D68002D01D0AC42F1D108204042C0BC53
:10244000B946B046F8BD0436BE42E3D10B68002B56
:1024500000D00360214BC2821A681860C26004F089
:10246000A5FB0020EBE71E4B802698461A881D4BE3
:10247000194F9C4610239946F601B944013292B295
:10248000624514D03D002B681B68002B03D111E07E
:10249000DB68002B0ED0DC8A9442F9D1013EB6B243
:1024A000002EEBD1434602201A804042C7E7C022EB
:1024B0001202E7E704354D45E5D143461A80002A6C
:1024C000C4D102204042BAE7074999E706204042BA
:1024D000B5E710204042B2E718F50110D8DC002023
:1024E0000C0F0020FFFF00006C06021070B5040006
:1024F0001600002844D0037D002B35D10320FEF7C1
:10250000B7FF051E40D0012223690361E38A0275EB
:10251000C382627D4275A268826022680260002BDD
:1025200014D1237D012B32D021000220FEF7BEFF03
:10253000184BAB61184B1A681D60EA6004F036FB5B
:102540000023002E00D03370280070BD134A13689A
:10255000A34204D111E0D968A14209D00B00002B9D
:10256000F9D10023E360DCE70F2300255B42E8E7B5
:10257000E268DA600023E360D3E7E3681360F0E722
:10258000102300255B42DCE701235B42D9E70448C6
:1025900013F026FE1D2F0010E0DC0020D8DC002008
:1025A00098F00110F8B5031E1FD0078DC16A456A67
:1025B0005C8E114E781A4019221CB4420BD892B28C
:1025C000821A0CD5491B0CD48022520291420FD2A0
:1025D00000205985F8BD321C92B2821AF2D45F8570
:1025E000F8E7002200205A85F4E7044813F0F8FDCC
:1025F000034813F0F5FDC046D0160000ACF0011002
:10260000D0F00110F8B500281DD0037D012B34D087
:10261000028D1D4B511889B299421BD91900466A87
:10262000458E1A4FC46A0185F3182A1CBD420BD887
:1026300092B212199A1A11D5A41B1BD480225202ED
:1026400094421DD24485F8BD3A1C92B212199A1ACE
:10265000F2D403E08A42E1D80B00E0E70C4A41855E
:102660001B1B9342EFD90222438B1343438303F096
:10267000B1FEE8E700234385E5E7064813F0B0FD27
:10268000054813F0ADFDC046A02D0000D016000097
:10269000670B0000ECF00110D0F00110F0B5DE4641
:1026A000454657464E46E0B5BF4DC04A2B6887B0F9
:1026B00001332B60BD4B1B7801331370BC4B9B4621
:1026C0005B461C68002C00D1CCE000230593237DE1
:1026D000002B00D112E2012B00D115E20A2B00D110
:1026E0000FE2B24AA17F1278914200D158E1A2775D
:1026F0004222A25C022B00D1FDE00B2A00D9F7E0B8
:10270000A122A65C002E00D15AE1226F002A00D03F
:1027100012E2E26E002A00D10BE2A222A25C0B2A96
:1027200000D9E5E0A020A34A9619013E3178225C49
:102730008A4200D28DE16023E15A002900D0B9E03D
:10274000200004F051F9002800D0BFE0A0230022AF
:10275000E254A132A35C062B00D9B7E00127002682
:102760000133A354237D062B00D1B5E008210800D6
:10277000627A10408046114227D0042B00D05EE1DF
:102780002B68226AFA219B1A99469423E358490040
:102790009A469823E35898469C23E058434658436A
:1027A000504415F05FF8814500D93EE1A327434628
:1027B000E05DFA21434318004900504415F052F8F7
:1027C00000239846814500D94AE1676F002F0AD05F
:1027D0002B68226A9A1A4023E15E4B005B185B006B
:1027E0009A4200D305E1237D032B00D18AE0092B17
:1027F00000D0AEE02B68226A9B1AF02B00D887E04D
:102800009023E6582000FFF775FD059B002B00D1B3
:10281000ADE05B461B68A34200D17EE1059BE26808
:10282000DA604346002B00D0ADE023699946E368A7
:102830009846237D012B00D16CE121000220FEF798
:1028400035FE00235C4C2370002E07D00D21484636
:102850004942B0472378002B00D031E74446002C92
:1028600000D034E7554F00243968002904D11AE01C
:102870000C00C968002916D00B7D0A2B00D046E158
:102880002B680A6A9B1AF02BF2D9002C00D1DAE0EF
:102890003B688B4200D143E1CE68E6600220FEF740
:1028A00005FE311EE8D107B0F0BCBB46B246A946D2
:1028B000A046F0BD200003F07FF9002800D045E7D6
:1028C000200003F087FD002800D03FE7237D01278B
:1028D0000026062B00D049E7638BDB0605D52B6865
:1028E000226A9B1A282B00D93E00002398466CE7E9
:1028F0000227012637E7052A00D801E70023012631
:10290000984662E72B68226A9B1A282B00D977E742
:10291000002E00D074E7237F627F0133DBB2E668CC
:1029200023779A4212D80023234A237713708C33DB
:10293000E358002B00D17CE02100206998471E4B12
:102940001B78002B00D0BBE6002872D00594340021
:1029500085E7002EDFD09022A658012B00D854E73F
:102960000A2B00D04EE7059B002B00D051E75B46B9
:102970001B68A34200D0D9E05B46E2681A60434678
:10298000002B00D151E7238B626A216D0293E38A09
:1029900020000193231D0093230003F0E5FB44E78F
:1029A0000594E4685BE7C046E4DC00204DDE0220CD
:1029B000D4DC002028F501104BDE0220E8DC0020EA
:1029C0003022A15E5E48228E824202D8013211B2CC
:1029D00021864022A25E01278A4200DDC3E6200054
:1029E00003F0F4FA002848D0236F002B42D0237D57
:1029F000B9E67868A1463C6800280CD0FFF756F984
:102A000039000420FEF752FD002C0AD02700786818
:102A10003C680028F2D139000420FEF747FD002C65
:102A2000F4D14C4600236367DDE601233E0098465F
:102A3000CBE6200003F0CEFC059434000FE7072B13
:102A400000D19DE651E73B688B426CD1CE683E6079
:102A500024E70132D2B222548A4200D237E76AE632
:102A6000200003F051FF002800D0AEE6E35D013303
:102A7000E355AAE6E36E002BB9D0237D022B13D0D9
:102A80003C22A35E3E21625EDB109B184222A15CC9
:102A90000A1C0C2929D82B49D2B28A5C9340284AB7
:102AA000934220DC4022A352002348212386603336
:102AB000E25A605A131C824200D9031C4A209BB27E
:102AC0005B082352618E4A0092B2934200D2225296
:102AD00048230022E1522233E252200003F0B0FEEC
:102AE0000127237D3FE6184BDCE70C221549D2B2C3
:102AF0008A5C9340124A9342D4DDF4E7134813F002
:102B00006FFB134813F06CFB124813F069FB12487B
:102B100013F066FB114813F063FB114813F060FBE0
:102B2000104813F05DFB104813F05AFB0F4813F0E8
:102B300057FB0F4813F054FB0E4813F051FBC046EF
:102B4000FE7F000008F50110FF7F000014F1011066
:102B50006CF1011040F101105CF2011098F00110CD
:102B600004F201108CF20110B4F2011030F20110E5
:102B7000CCF1011098F1011070B5041E16D06068F8
:102B8000256800280CD0FFF791F821000420FEF7FB
:102B90008DFC002D0AD02C00606825680028F2D139
:102BA00021000420FEF782FC002DF4D170BDC04648
:102BB00010B5041E08D04068002801D0FFF776F851
:102BC00021000420FEF772FC10BDC04670B5051E42
:102BD0000DD00420FEF74CFC041E06D01022290064
:102BE00015F014FA6068FFF777F8200070BD01480F
:102BF00013F0F6FADCF20110002800D001617047F2
:102C000010B5002804D0037D012B02D08423C150CD
:102C100010BD014813F0E4FAF8F2011010B50028D5
:102C200004D0037D012B02D08023C15010BD014888
:102C300013F0D6FA20F3011010B5002804D0037D5C
:102C4000012B02D09023C15010BD014813F0C8FAE7
:102C500048F30110002802D0037D012B00D07047FB
:102C60008161FCE710B5002805D0037D012B03D05E
:102C70008C23C150427710BD014813F0B1FAC04611
:102C800070F3011010B5002806D0037D012B03D985
:102C90000A2B01D0FFF72EFB10BDC04610B50C1E4D
:102CA00047D0002848D003688B4204D12FE0DA686F
:102CB000A24224D01300002BF9D10023E360237D2E
:102CC000002B0FD1638BDA0729D4E36E002B36D1AA
:102CD000236F002B36D1636F002B36D10023237571
:102CE000E38210BD0A2BF0D0012BF7D02000FFF7B4
:102CF00001FB237D0A2BE8D0012BEFD0E2E7E2684D
:102D0000DA600023E360237D002BEBD1DAE7CB68A8
:102D100003600023E360237D002BE3D1D2E702228E
:102D200013436383200003F055FB237D012BD5D093
:102D3000CBE7074813F054FA064813F051FA064857
:102D400013F04EFA054813F04BFA054813F048FA11
:102D500090F30110ACF30110CCF30110E4F3011077
:102D600000F40110F0B54E464546DE465746E0B544
:102D700005000E0087B0002867D0037D012B00D12D
:102D8000B3E00A2B00D1A1E0026D9246426A05929F
:102D900090228258934602699146002B63D1C38AE0
:102DA00000269846002B67D0534A1368834257D1B8
:102DB000C368136000232C6F98460026EB60002C3C
:102DC0005DD1EC6E002C16D06068276800280CD00E
:102DD000FEF76CFF21000420FEF768FB002F0AD0ED
:102DE0003C00606827680028F2D121000420FEF72B
:102DF0005DFB002FF4D16C6F002C16D06068276843
:102E000000280CD0FEF752FF21000420FEF74EFBF5
:102E1000002F0AD03C00606827680028F2D121000A
:102E20000420FEF743FB002FF4D1002E41D12B7D6F
:102E3000012B5DD029000220FEF738FB5B46002BFA
:102E400003D00D2148464942D84707B0F0BCBB46E5
:102E5000B246A946A046F0BDDA68AA4242D01300A5
:102E6000002BF9D1A6E7C38A010024489846FFF752
:102E700015FF0122224B1A702C6F002CA1D0606824
:102E8000276800280CD0FEF711FF21000420FEF770
:102E90000DFB002F95D03C00606827680028F2D118
:102EA00021000420FEF702FB002F00D189E73C003F
:102EB000F2E72B8B51460293434601932B1D00935F
:102EC00028002B00059A03F04FF9B0E701000D48E8
:102ED000FFF7E4FE2B7D012B0AD029000220FEF72C
:102EE000E5FAB2E7EA68DA6064E7074813F078F9D0
:102EF000064813F075F9C046D8DC0020D4DC002069
:102F00004BDE0220E8DC002018F4011098F00110DC
:102F100010B50121FFF726FF10BDC046080010B50F
:102F2000002905D00121FFF71DFF0D20404210BDF3
:102F3000014813F055F9C0464CF40110F0B5C646EF
:102F4000050000B50220FEF793FA041E2AD0A42241
:102F50000021200015F054F86423604A6575E252A0
:102F60005F4B4022A362FF23E372F93BA352E38746
:102F70005C4B5D4A23635D4B1B6823625C4B1B7893
:102F8000A3775C4BA3648423E2505B4A1033E25086
:102F90005A4A0433E25009220433E250200080BC34
:102FA000B846F0BD0827564E3468002C0AD02000E1
:102FB000438BE4681F42F8D0BB434383FFF76EF9AD
:102FC000002CF4D14F4B1868002812D0474B1C68D6
:102FD000036AE11AC368002B08D01A6AA21A914248
:102FE00001D811001800DB68002BF6D10121FFF792
:102FF000B9FE0220FEF73CFA041EA8D13368002B6C
:1030000016D03A4A0021106802E0DB68002B09D094
:103010001A7D092AF9D11A6A821A9142F5D811004B
:103020001C00F2E7002C03D000212000FFF79AFEDD
:103030000220FEF71DFA041E00D088E73368002B3B
:1030400016D02A4A0021106802E0DB68002B09D064
:103050001A7D082AF9D11A6A821A8A42F5D3110018
:103060001C00F2E7002C03D000212000FFF77AFEBD
:103070000220FEF7FDF9041E00D068E76BB2002BBA
:103080002ADB002D21D02A003368013AD2B2002B6E
:103090001BD016490F680021884607E0186A3A1AC3
:1030A00090461C000A00DB68002B08D0597D8A423C
:1030B000F4D8F8D1186A3E1A4645F4D3EFE7002C4D
:1030C00003D001212000FFF74DFE0220FEF7D0F9CA
:1030D000041E00D162E73AE77F22D5E7A02D000069
:1030E000A02DA02DFFFF1802A1340010E4DC002069
:1030F0004DDE02200100A02D00DD6D00F82401004E
:10310000D4DC0020E8DC0020F8B50220FEF7B0F99E
:10311000041E28D0A4220021200014F071FF4022B8
:10312000642359496275E152584BA362FF23E3724D
:10313000F93BA352E387564B564A2363564B1B6811
:103140002362564B1B78A377554BA3648423E2502C
:10315000544A1033E250544A0433E25009220433F3
:10316000E2502000F8BD0826504D2C68002C0AD0F3
:103170002000438BE4681E42F8D0B3434383FFF73B
:103180008DF8002CF4D14A4B1868002812D0424B1D
:103190001C68036AE11AC368002B08D01A6AA21AD5
:1031A000914201D811001800DB68002BF6D10121F3
:1031B000FFF7D8FD0220FEF75BF9041EAAD12B68A9
:1031C000002B16D0344A0021106802E0DB68002B87
:1031D00009D01A7D092AF9D11A6A821A9142F5D8C2
:1031E00011001C00F2E7002C03D000212000FFF7A3
:1031F000B9FD0220FEF73CF9041E00D08AE72B68D7
:10320000002B16D0244A0021106802E0DB68002B56
:1032100009D01A7D082AF9D11A6A821A9142F5D882
:1032200011001C00F2E7002C03D000212000FFF762
:1032300099FD0220FEF71CF9041E00D06AE72B68F6
:10324000002B1AD0144A00253F21166806E0186AA0
:1032500011001C00351ADB68002B08D05A7D914202
:10326000F5D8F8D1186A371AAF42F4D3F0E7002C3A
:1032700003D001212000FFF775FD0220FEF7F8F8CA
:10328000041E00D16DE745E7A02D0000A02DA02D64
:10329000FFFF1802A1340010E4DC00204DDE022004
:1032A0000100A02D00DD6D00F8240100D4DC002019
:1032B000E8DC002030B5040085B0002800D19FE094
:1032C000037D002903D0042B0DD0072B0BD0012B3D
:1032D00000D169E0022B4ED0002B3BD02000FEF73E
:1032E000DDFF05B030BDA26F002A54D0638BDB0632
:1032F00000D488E0238B20000293E38A626A019362
:10330000231D0093216D230002F02EFF237D012B4E
:1033100004D90A2B02D02000FEF7ECFF3D4A1368C7
:10332000A34214D1E368136000230122E3603A4B07
:103330001A703A4B1B68A34232D0237D012B24D153
:10334000374812F04DFFDA68A24250D01300002B2C
:10335000F9D1E9E7E38A002B17D0324A1368A34278
:1033600004D14AE0DA68A24244D01300002BF9D11C
:103370000023E36009E021002648FFF78FFC0122CB
:10338000254B1A70237D012BDAD002202100FEF795
:103390008DF80020A5E7244A218D9142A6D196E719
:1033A00002F076F800209CE7204A002110000C3043
:1033B00053681B68002B05D0DD6FAC4212D0DB6870
:1033C000002BF9D104329042F2D121001848FFF7C6
:1033D00065FC237D012B19D003202100FEF766F840
:1033E00000207EE7D967DB68002BE5D1EAE7E268D9
:1033F000DA6099E7E268DA60BAE7E3681360B7E792
:103400000C4812F0EDFE0C4812F0EAFE0B4812F0E8
:10341000E7FEC046D4DC00204BDE0220DCDC0020CE
:1034200098F00110D8DC0020A02D000018F5011044
:10343000E0DC00206CF401108CF40110A8F4011001
:1034400070B504001500002826D0037D012B07D09D
:10345000002908D1002A12D0042B12D8022B12D82E
:103460000B20404270BD1022438B13434383002D39
:103470000ED1806F002802D0FEF718FCA56700204F
:10348000F0E7072BECD100212000FFF713FFE9E75D
:103490000121FFF70FFFE5E710204042E2E7C046B9
:1034A000F0B5C6460C00150000B500294ED0002A24
:1034B0002AD00B7D012B4CD01389098D284ACB18BB
:1034C0009BB293421CD913009046676A668E254AC8
:1034D000E06A2385B844311C964200D9111C42464B
:1034E00089B20918511A18D5C01B13D480235B0266
:1034F000984231D260852800FEF7D8FB002006E014
:103500009942E0D81A00DFE70020002B12D080BCDF
:10351000B846F0BD00236385EDE76385124B121AB0
:103520009A42E8D90222638B20001343638302F09E
:1035300051FFE0E70B7D012B03D010224B8B13438F
:103540004B8301212000FFF7B5FEE0E71020404249
:10355000DDE7064812F044FE054812F041FEC04681
:10356000A02D0000D0160000670B0000ECF0011049
:10357000D0F00110F8B5041E32D00023856F6F7BA8
:1035800083678433C658002E0CD0010000232A0024
:103590000069B04700280BD00D301ED00520A5676C
:1035A0004042F8BD2989FFF72DF82800FEF77EFB81
:1035B000BB0610D5238D0C4A934201D001332385DD
:1035C0008423E558002D06D0002300222100206925
:1035D000A8470D3001D00020E3E70D204042E0E78E
:1035E00010204042DDE7C046A02D0000F0B54F4658
:1035F0004646D646C0B5204D204F2B7801332B7060
:103600001F4B9946012398464B461C68002C1BD043
:1036100008262B78A27F9A421BD04246A377638B61
:103620001A421ED11E4216D1E3689A46A36F002BA0
:1036300007D0002320003B70FFF79CFF3B78002B56
:10364000E2D15446002CE4D1E0BCBA46B146A846CB
:10365000F0BDE468F6E7B34320006383FEF71EFE87
:10366000E2E7022213436383200002F0B3FE032249
:10367000638B93436383D5E74DDE02204BDE02204C
:10368000D4DC002010B5FFF7B1FF054A13780133F1
:10369000DBB21370DB0700D410BDFEF7FFFFFBE7C2
:1036A0004CDE022030B5040085B0002800D19BE03C
:1036B000037D012B52D01021428B0A434283042BFD
:1036C00036D1A26F002A3DD0238B20000293E38ADB
:1036D000626A0193231D0093216D230002F044FDD3
:1036E000237D012B04D90A2B02D02000FEF702FE15
:1036F000404A13689C4218D1E368136000230122FA
:10370000E3603D4B1A703D4B1B689C421FD0237DEC
:10371000012B63D002202100FDF7C8FE002005B078
:1037200030BDDA68944216D01300002BF9D1E5E7DA
:10373000072BC6D0022B47D0002B32D02000FEF73B
:10374000ADFDECE72E4A218D9142BDD1F2E701F0AB
:103750009FFE0020E3E7E268DA60CFE7294A002114
:1037600010000C3053681B68002B05D0DD6FAC4295
:1037700012D0DB68002BF9D104328242F2D1210051
:103780002148FFF78BFA237D012B30D00320210045
:10379000FDF78CFE0020C2E7D967DB68002BE5D17E
:1037A000EAE7E38A002BB5D0184A13689C4208D197
:1037B000E36813600023E360ACE7DA68944210D05A
:1037C0001300002BF9D1F5E721000A48FFF766FA4C
:1037D0000122094B1A70237D012B9BD10C4812F05A
:1037E000FFFCE268DA60E5E71020404297E709480D
:1037F00012F0F6FCD4DC00204BDE0220DCDC0020E2
:10380000A02D000018F50110E0DC0020D8DC00201D
:1038100098F00110A8F4011010B5002807D0054B4E
:10382000054A10681A6894466044186010BD034841
:1038300012F0D6FC080F0020E4DC0020C4F40110D4
:1038400010B5002A12D000290AD00B8E002B07D009
:10385000282B06D9283B1A1C9BB2834203D890B26E
:1038600010BD0020FCE7021C90B2F9E7014812F0FD
:10387000B7FCC046E0F4011070B504000D0000284C
:1038800002D00368002B00D170BD1F4A10680028C9
:1038900005D00268934226D0C0680028F9D11B4B9E
:1038A0001868002806D0236802689A4224D0C068AD
:1038B0000028F9D1002DE7D02B68002BE4D0144B61
:1038C0001A68002AE0D023681168994205D0D268AE
:1038D000002AD9D011689942F9D12B681360D268B7
:1038E000002AF0D1D0E7C6680121FFF73BFA002E8D
:1038F000D5D030002368CCE7C6680121FFF732FA43
:10390000002ED7D03000CEE7D4DC0020D8DC002059
:10391000E0DC002070B5446F0600002C18D0606811
:10392000256800280CD0FEF7C1F921000420FDF71E
:10393000BDFD002D0AD02C00606825680028F2D15A
:1039400021000420FDF7B2FD002DF4D100237367A0
:1039500070BDC046F8B5DE4657464E464546E0B512
:10396000002800D1ABE0574B1D88002D46D0564BA8
:10397000994600234A461380544B00221E68544B3C
:103980001F881B7898464146C943524B8A461B689C
:1039900051499C468B460023002E1FD0140014343E
:1039A0006444954200D87EE0531C9BB297422BD8CA
:1039B0005146C918C9B2715C012928D002292AD000
:1039C000002919D09F4252D963441B7D012B00D896
:1039D00071E0D218012392B2002EDFD11100143110
:1039E000614495425FD90C78531C9BB2012C50D096
:1039F000022C4BD0002CE7D14A461380F0BCBB46CA
:103A0000B246A946A046F8BD21780129D6D11A00B0
:103A100001340123C5E7911C89B29F4222D9634436
:103A20001B7D042B44D14B1CAB4241DAD31C9BB20F
:103A3000002E32D08F421FD84446091BC9B2715C98
:103A40000432090292B29F421DD844461B1BDBB2CE
:103A5000F35C0B43591E89B2594500D91F4B43866D
:103A60000123B9E744461B1BDBB2F35CD9E74146AF
:103A70005B1ADBB2F35CA9E76144097D04320902F9
:103A800092B29F42E1D963441B7DE2E7911C89B267
:103A9000C5E71A0001310123A3E76144097D04321F
:103AA000090292B2EFE7002BA8D04B461A80A5E797
:103AB0004B461980A2E74B4602321A809EE708481F
:103AC00012F08EFB32DE02202EDE0220F0DC00201F
:103AD00030DE0220ECDC0020B3050000B40500005D
:103AE00030F50110F0B5D6464F46464605000C00AD
:103AF000C0B500285FD0C368587B1A7B0002104312
:103B0000FCF75EFFC30751D401239A46FE33984663
:103B10002A4E336899462B894B449C46E368587972
:103B20001A79997900021043090408436146DA7949
:103B30001206024320898018081A2DD4587B1A7B5C
:103B400000021043FCF73CFF5346034207D12768AD
:103B50002000FFF72DF8002F17D03C00D9E7EB68C5
:103B600001201F7B5B7B1B021F43FCF729FF4146A3
:103B70003843EA6883B2276808401B0A10735373FE
:103B80002000FFF715F8002FE7D100242C60E0BCDF
:103B9000BA46B146A846F0BD531AF7D54B46D21ADD
:103BA00091B268682981FDF795FFEFE72000FEF7E5
:103BB000E3FF0024EAE7024812F012FB60DB00207A
:103BC0004CF50110F0B55746DE464E464546E0B589
:103BD00083B007000C1E019246D02D4B9B466623F6
:103BE00098462C4B99465B46E1681D684B790879ED
:103BF0008A791B020343C879120413430006184351
:103C0000FCF7E2FE238906009A46E368AD1B587B69
:103C10001A7B00021043FCF7D3FE5346ED1A032330
:103C20001840431E98412D1A2AD460682568FEF773
:103C300049F84346FB5A984227D842461B1ABB52C2
:103C40004A462389128820009B184A461380FEF7B3
:103C5000AFFF4346FB5A002B0ED0002D01D02C00A5
:103C6000C1E7019B002B0DD0002003B0F0BCBB4688
:103C7000B246A946A046F0BD002DF5D02C00B2E713
:103C80002000F2E7044812F0ABFA044812F0A8FA58
:103C9000541700202CDE02209CF5011074F5011051
:103CA000F0B5DE4657464E464546E0B5040083B0C3
:103CB000002801D100F0C3FC017D032901D800F0E8
:103CC000C1FCAB4B1B78DB0654D4AA4EAA4D3388FB
:103CD0002A689C466346002B00D194E0217D06298A
:103CE00000D990E0636A991A012900D554E1D843BC
:103CF00067468018F84200D54EE1A04F786800284A
:103D000001D100F0D6FC9E4B994201D900F0CEFCC7
:103D1000028989B28A4201D200F0C5FC3B89521A5D
:103D20005B1A3B8193B2984643898B420BD20022A7
:103D300094464246C91A634602814381006889B2AB
:103D400043898B42F6D3FDF733FF636AFA68190A99
:103D500051711902090E9171190E2B601371D171F5
:103D6000228DD218DB43DA4200D454E2200002F064
:103D700007FB50E06023C35A7F4D9946836D2A6844
:103D80009A46436D981A15D4934200D151E17D4B68
:103D9000186800934B46D346824520D17A4B1E6863
:103DA000B37B9C46F37B66461B02334399450CD399
:103DB0004B4614E0734B18680093734B1E68B37B3B
:103DC0009C46F37B66461B0233436026A3530236B0
:103DD000A75B9F4200D2A35383466265A065666CD1
:103DE000B046361A23D4634E3788BC46002F00D025
:103DF00091E049465B4451448B4200D1AAE1636B98
:103E0000002B00D08BE0636AD11A0BD4D243218DF2
:103E1000CB18D34206D403B0F0BCBB46B246A94689
:103E2000A046F0BD0222638B13436383F3E743464E
:103E3000DB43C34200D504E1236D1B1A00D500E12A
:103E400004231E00628B1640134200D09BE14633D0
:103E5000E35A9C464823E15A3C27E35FE78FDB1097
:103E6000B94640274B44E35343460237C31AE6534F
:103E70009BB260648C4500D89BE180200001024029
:103E800050424241608E01324243101C92B29A422B
:103E900000D9181C081880B2884200D293E1482249
:103EA000A052E26E216F2000FFF78CFEE16E02004F
:103EB00020672000FFF786FE216FE0664B424B41F2
:103EC0005B42238600232377002800D180E164220F
:103ED0002E4EA35A36889B19A352638B1A0500D421
:103EE000B2E0002900D1CCE2C9684A7908798B791F
:103EF00012020243C8791B041A4300061043FCF760
:103F000063FDE36CC01A00D59EE0638B204A194E16
:103F10001340638399E0636B002B00D1DFE6A16B54
:103F2000081A00D4D6E69BB29A461A493C23E05EB2
:103F30000988C710BFB2CB1B884651465B1A9BB29B
:103F4000181800B219B2A087002903DA4346FB1AF9
:103F500053449BB23E27E15FC0108F10C91B5B1812
:103F600040219BB2E3871B18635200236363B1E6D1
:103F700042DE022034DE022060DB0020842C0020A0
:103F8000FEFF000054170020ECDC00202CDE022095
:103F9000FFF7FFFFE4DC0020D11A00D5D5E0D143C4
:103FA00089464846218DC918C14200D5DEE69342B4
:103FB00000D12FE10023676F9846531E002F00D1D8
:103FC00064E2B44616004246A84601940093F9689C
:103FD00048790B79000203439A4650468B791B04BB
:103FE0000343C87900060343B34200D1F3E0002A3B
:103FF00033D0D0680479A34644792402A2465C46B3
:1040000055462C43A2468479C0792404A3465446DD
:104010005D4600062C432043009C201A03D44846EA
:10402000C34200D43FE238683A00002823D007009A
:10403000CDE7B94B1868009353461B1A00D4A9E684
:10404000BBE6200002F09CF9B44E636B002B00D05D
:1040500075E033882A689C463CE6F21AE3D5B048FE
:10406000019CFEF7B3FD002800D17FE660673900B0
:10407000FFF738FD7AE6320045466646019C9B1AFA
:1040800000D473E6487B0B7B00021843FCF798FCD6
:10409000C30700D56AE6A248FEF798FD38600028FD
:1040A00000D163E6F8682A68437901791B020B4363
:1040B000817909040B43C179090619433B895B18CF
:1040C000D31A00D5C1E2636A3188591A238DC91801
:1040D000891A00D44AE63B68DB68587B1A7B0002E9
:1040E0001043FCF76DFCC30700D5BBE23A68218D95
:1040F0002B685068C91A636A9C46614489B2118171
:10410000FDF7E8FC3B681F89DB68587B1A7B0002DF
:104110001043FCF755FC0300032003405A1E934153
:10412000616AFB188C462A689BB233809B18228DEB
:104130006244934200D119E67A4812F051F8009A8D
:104140001068328894462A68E9E60222638B13439A
:1041500063830BE63021635E002B00DA4FE6804577
:1041600000D04CE64321635CFF2B00D1F2E1013328
:10417000DBB26354032B00D9ECE100D03FE6200012
:1041800001F0C0FF61E79A434A2362830022E15AAB
:10419000023BE1522233E2523C26A35FE68FDB1062
:1041A0009B194026A35343460236C31AA2539BB21F
:1041B00060646A20225AD3189BB29A421ED88B425E
:1041C0001DD223526DE6012248235242E25268E694
:1041D0006833E0527BE6524890463B890289019C55
:1041E0009A4200D8C2E5FEF7F1FC002800D1BDE5F7
:1041F0004346002B00D139E7186038E74A4B6A2262
:104200005B1AA352638ECB189BB28B42DBD3223A4C
:10421000A35246E6424F3B899846FB68587B1A7B7F
:1042200000021043FCF7CCFB032303405A1E9341CA
:1042300043449BB23380228D934200D956E1616F93
:10424000002900D12BE1FB68587B1A7B0002104348
:10425000FCF7B6FBC3076DD4636F9846002B00D103
:10426000FBE10123994601339A4623000097444617
:10427000984609E0236820009B46FEF799FC5B46C0
:10428000002B00D17CE15C462A68338893469C462B
:10429000DC446746E268517910790902014390795C
:1042A00000040143D0790006014320894018381AE0
:1042B00000D55AE1507B137B00021843FCF780FBCA
:1042C0004B460342D6D0009BDB68587B1A7B00022A
:1042D0001043FCF775FB53460342CBD1009FFA68AD
:1042E000537B107B1B0203439B460120FCF768FBBA
:1042F0005B46FF21FA68034398B20B401373030A2D
:1043000053733B899B46FCF75BFB032303405A1E18
:1043100093415B443380ADE75417002034DE022024
:10432000842C002024F60110FFFF0000036863675F
:10433000FEF73EFC606F0028F8D12A683388944667
:10434000228D9C4461466162934200D9A8E1D31A50
:1043500023852000FEF726F97B681A89002A03D0FE
:10436000D54A136000237B60FB68587B1A7B0002F0
:104370001043FCF725FBC30704D52021CF4A13784F
:104380000B431370666F002E72D0CB4B03279946F8
:10439000CA4B98461FE0FDF7B3FC00237360F36837
:1043A000587B1A7B00021043FCF70AFBC3070AD5AF
:1043B000434620221B78134342461370237D042B6F
:1043C00001D103332375336830006367FEF7F0FBD8
:1043D000666F002E4CD0F16848790B798A7900021B
:1043E00018431204CB791043626A1B0603439342BD
:1043F0003ED12B603389487B9A460B7B00021843E1
:10440000FCF7DEFA3840431E9841636A5344C018F3
:10441000238D60629A4633899B46F368587B1A7BEA
:1044200000021043FCF7CCFA3840431E9841584430
:10443000824500D231E133899A46F368587B1A7B72
:1044400000021043FCF7BCFA3840431E9841238D0C
:104450005044181A20852000FEF7A4F871680B89D3
:10446000002B9CD04B461868002894D1196094E723
:104470000122638B1A420ED09343022213436383BB
:10448000C9E4002800D141E5C1682EE58C48FEF75B
:104490009DFB60676AE4012213436383BBE42968E0
:1044A0008C469C444EE786484546019C9046FEF764
:1044B0008DFB061E00D159E44346D868296842792D
:1044C0000379857912021A43C3792D042A431B0606
:1044D000134342461289D2188A1A71D443463900CE
:1044E00030001E60FFF7FEFAFFF740FCFB68587BC8
:1044F0001A7B00021043FCF763FAC30749D4FB6838
:10450000587B1A7B00021043238D3B81FCF758FA3D
:104510003989830702D5013989B239817868FDF775
:10452000D9FA3B899846FB68587B1A7B00021043F6
:10453000FCF746FA032303405A1E9341434429687B
:104540009BB23380228D5818616A5118884200D17D
:1045500075E6F1E54823E25A638ED3189BB29A427E
:1045600000D9584B4822A35209E64246A0461400FF
:104570006246009F8A1A2BD442466267228DE1E68A
:104580002A683388944600224446009F90469C4403
:10459000F2E7FB681A7B5B7B1B021343180098460B
:1045A000FCF70EFA3E231840FCF70AFA4246464B47
:1045B00013400343FA6898B21373030A5373A3E7D3
:1045C000C91A434689B258681981FDF783FA85E70D
:1045D0005B46C91AFB683981587B1A7B000210437D
:1045E000FCF7EEF9830702D53B89013B3B81398912
:1045F0007868FDF76FFA3B899946FB68587B1A7B10
:1046000000021043FCF7DCF9032303405A1E9341D8
:1046100042464B44D1689BB233804A7908791202F2
:1046200010438A79C97912040243090611432A68A2
:104630008C469A188A429FD0244811F0D1FD244814
:1046400011F0CEFD234811F0CBFD511A89B27868E4
:104650003981FDF73FFA2A6835E52A6833889446A0
:104660009C4489E73B68DB681A7B5B7B1B02134336
:1046700018009846FCF7A4F93E231840FCF7A0F96F
:1046800084464046104B3A68034060461843D16860
:1046900083B21B0A08734B7329E50F4811F0A0FD84
:1046A0000E4811F09DFD0E4811F09AFD0D4811F0D5
:1046B00097FD0D4811F094FD50DB002049DE0220EB
:1046C000842C0020FFFF0000FFC0FFFF5CF60110FC
:1046D000BCF50110D8F50110B8F6011098F60110DC
:1046E00014F6011004F60110F4F50110F0B5DE46E1
:1046F00057464E464546E0B504008DB0002801D12E
:1047000000F043FD7A22884DAB5A0133AB52874B00
:10471000426898461A604389132B11D88222AB5AFB
:104720000133AB527E22AB5A0133AB522000FDF76E
:10473000BDFA0DB0F0BCBB46B246A946A046F0BDDE
:104740007B4F3968786907F0FBFF002815D1F0230B
:104750007A691340E02B10D039003B0014312289D4
:104760002000009110330621FCF7F8FB061E09D04B
:104770008022AB5A0133AB52D4E78822AB5A0133C3
:10478000AB52CFE743461B68587B1A7B00021043AD
:10479000FCF716F9010B8900C9B21329BED9238988
:1047A0008AB28B42BAD313006248143B9BB2038097
:1047B00081466148066082466089904200D30AE2E1
:1047C0002368002B01D100F0DEFD14212000FDF74D
:1047D000EFF96689594B31001E804B461B8820003B
:1047E00099469B1B9BB29B46FDF7E2F920684389E3
:1047F0005B4500D292E75346426859461A60FDF77E
:10480000D7F94A462389F3189B1A62899BB2238100
:10481000002A01D000F0BDFD226812899A4201D021
:1048200000F0B4FD43461E687078337800021843E8
:10483000FCF7C6F843463070000A70701E68F078C6
:10484000B37800021843FCF7BBF84346B070000A87
:10485000F0701E6872793079B37912020243F079F0
:104860001B041A4300061043FCF7AEF8030A7371E9
:10487000030CB371030EF371314B30711860434672
:104880001E68727A307AB37A12020243F07A1B04FD
:104890001A4300061043FCF797F8030A7372030CDF
:1048A000B372030EF372274B3072186043461E68D2
:1048B000F07BB37B00021843FCF782F84346B073E9
:1048C0001B68000AF073587B1A7B00021043FCF748
:1048D00077F8C3B208933F231B4A03400693137033
:1048E00023890593820700D17BE118495A1C92B2B3
:1048F0000A9209910A80934200D90FE7144B1E686F
:104900000B96002E01D100F03DFC7B6800209946FB
:10491000434619683B699A467B6907933C239C464A
:104920004B46A14604931BE0C02C0020ECDC002089
:10493000942C002032DE0220F0DC002030DE022049
:1049400060DB00205417002042DE022034DE02200B
:10495000D4DC0020F3683000002B00D1E7E01E001B
:10496000337D002B01D100F019FC0A2B01D100F09E
:1049700012FC012B01D100F00BFC327A002A06D088
:104980006446049B1B5D0133DBB29A42E2D14B7853
:104990000C78328B1B0223439A42DBD18B78F28A4C
:1049A0009B465C46CB781B0223439A42D2D1736864
:1049B0005345CFD13368079A9342CBD1F3684C4625
:1049C0009E4201D100F0C3FC002801D100F018FC88
:1049D000C360914A0B9B1660F3609E4201D100F0C8
:1049E000BCFC00238D4F059A3B603A818C4A7C6069
:1049F000136092468B4AF960137091468A4A13807D
:104A0000089B93461B0703D50122637B1343637303
:104A1000B36F002B10D03000FEF7ACFD0D3000D18D
:104A2000DAE1B36F002B04D0099B1B88002B00D068
:104A3000D2E17E4B1B780693069904230A007C4C36
:104A40001A4026600B4200D195E1337D022B00D144
:104A5000FAE17849726A09688A4200D14FE38B1AF9
:104A600007D4338D521ADA4203D40223728B1343D4
:104A700073834B46197808230B40002B00D0F3E1D9
:104A80005B461A88002A0DD08023F358002B04D0EF
:104A90003100306998470D303DD000235A461380CD
:104AA0004B46197810230B4200D02EE35246126871
:104AB000002A19D0B16F002901D000F07FFC718B62
:104AC0000B4200D081E38423F55831000023002DF0
:104AD00000D19BE33069A84703000D331BD00028A9
:104AE00002D053461B68B3674A462023127813420C
:104AF00006D0B26F002A00D153E3517B0B435373AE
:104B00004A460023127823601033134200D0FCE29F
:104B1000300001F05FFC00255346786825601D6079
:104B2000002800D105E6FDF7C1F87D6001E64C469E
:104B3000414B186800285BD07B689C463B69664601
:104B40009A467B69A4469B4602E0C06800284ED086
:104B5000037D0A2B00D072E3047A002C05D03C239D
:104B6000F35C0133DBB29C42EFD14B780C781B0233
:104B70002343048B9C42E8D18B7899464A46CB78F4
:104B80001B021343C28A91469A42DED143685345C1
:104B9000DBD103685B45D8D1089B260064465A07E1
:104BA00000D5C3E59B0700D44CE3224B1A68436A47
:104BB000D11A05D4018D9B1ACB4201D400F0EFFB32
:104BC0000A9B002B00D1B1E50223428B13434383A0
:104BD00001F000FCAAE5194A20001380FCF7E8FF69
:104BE00020E61A00164B0A9209931A8086E664465C
:104BF000144B1E689B460596002E00D1F7E07A699B
:104C00003C209146844648467B6800229A46A1464D
:104C1000069304901EE0C046D4DC0020842C0020C3
:104C200050DB002049DE02202CDE022042DE022082
:104C3000DCDC002060DB0020E8DC002030DE02202D
:104C400034DE0220E0DC0020F3683200002B00D1CB
:104C5000CCE01E00307A002806D0534664461B5D27
:104C60000133DBB29842EFD1CB7888781B02034343
:104C7000F08A9842E8D13068049CA04201D0002814
:104C8000E2D14C46002A00D15AE2F068D060059A81
:104C9000F2605A461660089A500700D546E5D206DB
:104CA00000D554E2089B9B0700D43FE5707DFEF7DA
:104CB00045F98146002800D1ACE279693B69016081
:104CC0004360F38AC38243461A68537811781B0203
:104CD0000B43038303230375D54B1B6804930133F4
:104CE0004362C362FEF798FD4B464A4698651865D5
:104CF0005864D865CE4B1B68013B53654B463269FF
:104D0000DE671A610C22737A13404A465372337A73
:104D10001372C84B1B6804934B46049ADA604A46E8
:104D2000C44B1A6001F042FF0122C34B48461A707F
:104D3000FEF710FE43461A68D37B917B1B020B43A0
:104D40001A0413434A46151D13662800568E07F0B1
:104D5000CDF92A0001003000FEF772FD4B4612210A
:104D60005886484601F0A0F8002800D061E2484685
:104D700001F030FBDAE4080002231940034200D1BD
:104D800082E0337D023B012B00D9D6E110210800DF
:104D9000738B1840194200D0EEE1A84B1B683362B8
:104DA000A223F0523000FEF7D5FD337D9A1E012A72
:104DB00000D95EE6032B00D08EE09D4A736A12682C
:104DC000013B934200D054E6300001F04DF94B46D0
:104DD000197808230B4050E6738D002B00D1A2E117
:104DE0007E22AB5A964C0133AB5294E64C46487B3C
:104DF0000B7B00021843FBF7E3FD430700D595E466
:104E00008822AB5A0133AB520A3AAB5A0133AB5248
:104E100043461E688B4B099A18001188844A75789E
:104E2000126837788A182D0287493D43143809687B
:104E300040680295F578B7782D023D4301951D1F16
:104E4000009501F005FA71E47F4B326D1B689A42C0
:104E500000D00EE64B4608221B7813434A461370D7
:104E60000122738B934373839023F358002B03D059
:104E70000E2130694942984731006E48FDF70EFF18
:104E80003000FDF7A9FA46E610221000738B184097
:104E90001A4200D04BE1694B1B683362A223F052E7
:104EA0003000FEF757FD337D092B00D9E1E5674A55
:104EB0009B00D3589F463000FEF7F2FE4B46197810
:104EC0008B0600D4D7E50223728B13437383072329
:104ED000337501330B40D0E51223069A1340122B91
:104EE00000D1D4E1069BDB0600D4C2E54346504A1C
:104EF0001968099B12681B8808789A184B781B025E
:104F000003430293CB7888781B0203430193504BF1
:104F10004D49009330004B4B096801F025F94223BD
:104F2000F35C052B00D9A4E500233000338601F0A3
:104F300099FC4B46197808230B409EE53000FEF79C
:104F4000AFFE1021434B1B780B4200D191E53E4B45
:104F5000326D1B689A4200D08BE5F36E002B00D0B7
:104F600087E54B464A461B781943117008221340C7
:104F700083E53000FEF794FE4B4619788B0600D48B
:104F800079E50223728B300013437383FDF77AFEB9
:104F9000284B1B689E4205D1E7E1DA68964200D1B2
:104FA000EEE11300002BF8D10122234B1A700A23E3
:104FB0003375294B1A681E60F26001F0F7FD4B460D
:104FC000197808230B4058E53000FEF769FE4B4680
:104FD00019788B0600D4FFE01E4B1B78DB0605D545
:104FE000194B326D1B689A4200D11BE20223728B6F
:104FF00013437383082333750B403EE53000FEF7FF
:105000004FFE144B1B78DB0600D432E50E4B326D9D
:105010001B689A4200D02CE5F36E002B00D028E5E7
:105020003000FDF72FFE034B1B689E421BD18AE127
:1050300060DB0020D4DC00204BDE0220E4DC00201A
:10504000DCDC0020A82C002054170020BCF8011044
:10505000A42C002042DE0220E8DC0020DA68964220
:1050600000D199E11300002BF8D10122D54B1A7021
:105070000A233375D44B1A681E60F26001F096FD66
:10508000F7E4069BDB0600D4F3E4D04B1968736C9D
:10509000DB43CB4200D5DDE0336D5B1A00D5D9E0B0
:1050A00004233375F36F002B00D191E09B69002B33
:1050B00000D14FE10022310030699847002800D02C
:1050C0004EE13000FEF7ECFD5B461B88002B02D062
:1050D0005A46013B1380738EBD485A0011009B0055
:1050E000824200D201008B4200D342E19BB24822AF
:1050F000B3524B4619788B0600D5E4E6BBE4002B8F
:1051000000D0A7E6B34811F06BF8728B1A4200D0BA
:10511000B2E68033F358002B00D1ADE60F213069A1
:1051200049429847A8E6300001F02AF958E6A22340
:105130003000F152FEF70EFCB5E60222738B96E4C6
:105140008E2294466046AA5A01322A52A3E50A9852
:105150000D7884464978A04A0902126829430193D0
:105160009E4B02919949009309689D4B06986244B1
:1051700001F06EF8FFF7DAFAA2233000F252FEF7E0
:10518000E9FB12E643461968D2E4964811F028F884
:10519000954811F025F8954811F022F8944811F03F
:1051A0001FF8338D934A934201D001333385842312
:1051B000F558002D00D1A3E4002331001A00306916
:1051C000A8470D3000D09BE4A5E41000FCF76EFD6D
:1051D0003000FDF79DFE9EE4874B1B78DB0600D474
:1051E00049E47A4B326D1B689A4200D043E4F36E77
:1051F000002B00D03FE40623337502330B403CE420
:105200008E22AB5A0133AB52FFF7EBFB1800FEF7CF
:1052100047F961E48422AB5A0133AB52B369002BE6
:1052200001D1FFF783FA0100853A30699847FFF70B
:105230007DFA00214846FDF795FDFFF777FA6F48A4
:1052400010F0CEFF089BDB0700D4B9E46C4B1B6861
:105250000362B5E44346604A1868099B12681B88DC
:1052600005789A1843781B022B430293C3788578FC
:105270001B022B430193594B30000093584B00F015
:1052800073FF4B46197808230B40FFF7F6FB4F4B93
:105290001B680493736C049A0133934200D021E697
:1052A000736443464C4A351D1268511C7162F162A9
:1052B0001968013ACB7B887B1B02034319040B431B
:1052C000336604233375738E72652800984606F0A2
:1052D0000DFF2A0001004046FEF7B2FA4200708638
:1052E00083003B481100824200D201008B4200D370
:1052F000BBE09BB24822B3521E32B35A002B00D1FE
:10530000B0E0306F013BB352002800D1A4E0036845
:105310003367FDF74DFC336F002B00D199E000237C
:105320004222B35433868823F358002B01D1FFF770
:105330009CFB00223100306998470D3001D0FFF707
:1053400094FBFFF7E8FB2F4BF2681A608DE62E48BE
:1053500010F046FF2D4810F043FF2D4810F040FF9D
:105360000D3001D1FFF7D7FB32E7264BF2681A6008
:105370001AE617490B008A4200D8B8E693B2B6E69F
:10538000F268DA6010E6234810F02AFF224810F095
:1053900027FF224810F024FFF268DA6065E60A9BD6
:1053A0000A499C464B4601930C4B029600930968B0
:1053B0000B4B624400F0D8FEFFF7B8F9184810F024
:1053C0000FFFC0464BDE0220E8DC0020541700200F
:1053D0001C11000034F8011060DB0020A42C002018
:1053E000A82C0020DCF6011084F7011058F70110FA
:1053F00030F70110A02D000042DE022004F8011059
:10540000E4DC0020D4DC0020ACF7011080F80110AF
:10541000D8F70110F4F6011010F7011004F701108D
:10542000A0F80110F36E002B00D0DFE5728B023381
:10543000134373833000FDF725FC114B1B689E421C
:1054400004D180E7DA689642A6D01300002BF9D188
:105450000BE601235B4265E7F06E00280CD0036881
:10546000F36656E7074810F0BBFE07490B008A4277
:1054700000D83FE793B23DE7044810F0B1FEC046C4
:10548000D4DC002054F801101C1100006CF801104D
:105490001021024A13780B431370704749DE022033
:1054A000F0B54F464646D646C0B5994608AB80464D
:1054B0000E0092461F7800285FD000295AD004259C
:1054C000BB0004201D40FBF7D3FF041E4ED0002379
:1054D0008772036046603389AAB2AB4250D39B1AED
:1054E000038114213000FCF739FB061E34D16368B8
:1054F0005F684346E760D88AFBF762FA4346387034
:10550000000A7870188BE768FBF75AFAB870000A3F
:10551000F8704846E768FBF757FA030A7B71030CFB
:10552000BB71E36838719846A023DB019C46534663
:10553000000EF871A80260441843FBF741FA434695
:105540001873000A5873E3689E74DE742000E0BC90
:10555000BA46B146A846F0BD8C220B4920008B5AB2
:10556000002401338B52FDF723FBEFE73000FCF7FB
:105570009DFBEBE7054810F033FE054810F030FEC8
:10558000044810F02DFEC046C02C002004F9011084
:10559000E4F8011028F90110F0B54746CE4680B571
:1055A00005000C0090461E0085B000294DD0002853
:1055B00038D0007A00282BD1180006F097FD071E7E
:1055C0002AD0636806219946200043462289009626
:1055D000FBF7C4FC4B461874000A5874EB7AAD7A9A
:1055E00078211B48425A013242520622009501920C
:1055F000414632002000029706F01CFF0500200003
:10560000FCF754FB280005B0C0BCB946B046F0BD5D
:10561000FCF746F9071ED4D104252000FCF746FB11
:105620006D42EFE7180006F061FD071EF4D0434617
:1056300006212000228900966568FBF78FFC2874FC
:10564000000A6874FF230025CAE7024810F0C8FD6D
:10565000C02C002040F90110F8B54E464546DE4604
:105660005746E0B50500160000284ED0A022436A38
:1056700014319846C38A89B29A46038B92009946A0
:10568000438D22209B46FCF779F9071E36D04389CB
:10569000132B3DD944685046FBF792F92070000A5D
:1056A00060704846FBF78CF9330AA0702671000A37
:1056B0006371330C360EE070A3714046E671FBF760
:1056C00083F9030A20726372030C000EA372E07266
:1056D0001148FBF775F92073000A60735846FBF711
:1056E0006FF900236A6AA0739446000AE07323747A
:1056F0006374A374E3746B8D6344EB623800F0BC95
:10570000BB46B246A946A046F8BD044810F068FD65
:10571000034810F065FDC046105000006CF9011000
:1057200094F90110F0B54546DE4657464E46E0B5C1
:105730008BB08046049101920993002800D1EFE1DB
:105740006223C35A428E5B08191C934200D9C7E0FA
:105750008BB20093002B00D1C0E0049B002B00D142
:10576000DEE143461B7D072B0CD0023B022B09D9FF
:105770000B256D4228000BB0F0BCBB46B246A946D3
:10578000A046F0BD019A002A00D1C2E06423414640
:10579000CB5A934200D2CBE16623CB5A02931F2B04
:1057A00000D9C0E1002B00D1A1E00B6F002B00D18C
:1057B000A0E14346DB6E9A46002B00D1C8E11A00F7
:1057C0001B68002BFBD111000892927A9A46920036
:1057D00004331A400B8900989918884200DAC5E111
:1057E00068214046405A0790002800D196E0009971
:1057F000CB1A9B1A9BB2984200D9BAE1019A051CB8
:10580000904200D970E1AAB29A4200D96AE1079B9E
:10581000ADB25F1BBFB2002F00D15DE1019BAB4277
:1058200000D0A9E1089C002D00D16CE1089B5E68C6
:10583000002E1AD03389EB1833813368002B06D041
:105840001E003389EB1833813368002BF8D173685D
:1058500070899C462A000499604412F0D7FB738932
:10586000EB1873813368002BEAD1089A1389ED187D
:10587000158168234246D7525246089B1A60019907
:1058800043468C464246DB6D6344D3656423D25A5B
:10589000521A4146CA52029A0233CA52002A03D00F
:1058A0000B6F002B00D134E1002C00D12FE1E36815
:1058B0000025002B00D15DE7099A920700D559E732
:1058C000587B1E7B000206430820FBF779F8304323
:1058D000E26883B21B0A107353734BE700923CE7F4
:1058E000111C8BB20093002B00D036E7F6E70B6F4C
:1058F000002B00D029E1CB6E002B00D025E16823DE
:10590000CB5A0293002B00D039E100230793089370
:1059100008E066234246D35A02934AE7019B002BD4
:1059200000D12FE100236946009A9A460393079E0F
:10593000019B4A830BE05346002B00D102E11C601F
:10594000F619019BB6B2B34200D87FE0A2469B1B7A
:10595000009A1F1C9BB2934201D96B465F8BA02219
:10596000362000999200FCF709F8BFB2051E00D15D
:10597000A7E003689B46002B00D0E0E043893A0093
:1059800005933B043B438360049B4068991912F0E4
:105990003DFB2800FCF796F9029B9C46604483B2CD
:1059A0000293202B00D990E04346DB6D04209946FA
:1059B000FBF75EFDB144041E00D186E05B46456006
:1059C000837203602B89142103812800FCF7C6F839
:1059D000051E4ED163685B689B46E3604346D88AE8
:1059E000FAF7EEFF5B461870000A5870E3689B46B2
:1059F0004346188BFAF7E4FF5B469870000AD870AC
:105A0000E36848469B46FAF7DFFF5B465A46187143
:105A1000030A5371030C9371000EE368D071A02048
:105A20009946C001FAF7CCFF4B461873000A587329
:105A3000E3689D74DD74039B002B00D07BE7F619AF
:105A4000019BB6B20394B34200D97FE7039B9A4609
:105A5000059BDF1B079BBFB2002B52D16823424638
:105A6000D752089B002B00D006E743465246DA6621
:105A700005E78C22039B464D9A46AB5A2000013322
:105A8000AB52FDF795F8434680225B8B13434246A9
:105A900053838422AB5A0133AB525346002B02D0BE
:105AA0005046FDF769F866234246D35A002B05D0CD
:105AB000136F002B02D1D36E002B2ED001256D4227
:105AC00058E6039B324D9A46DDE7039B28009A4631
:105AD000FCF7ECF82E4DD6E7019B0795AB4200D9B9
